{
  "_format": "hh-sol-artifact-1",
  "contractName": "PHashRegistry",
  "sourceName": "contracts/ImageAuthenticator.sol",
  "abi": [
    {
      "anonymous": false,
      "inputs": [
        {
          "indexed": true,
          "internalType": "address",
          "name": "owner",
          "type": "address"
        },
        {
          "indexed": false,
          "internalType": "string",
          "name": "pHash",
          "type": "string"
        },
        {
          "indexed": false,
          "internalType": "uint256",
          "name": "timestamp",
          "type": "uint256"
        }
      ],
      "name": "ImageRegistered",
      "type": "event"
    },
    {
      "inputs": [
        {
          "internalType": "string",
          "name": "_pHash",
          "type": "string"
        }
      ],
      "name": "getOwner",
      "outputs": [
        {
          "internalType": "address",
          "name": "",
          "type": "address"
        }
      ],
      "stateMutability": "view",
      "type": "function"
    },
    {
      "inputs": [
        {
          "internalType": "string",
          "name": "",
          "type": "string"
        }
      ],
      "name": "imageOwners",
      "outputs": [
        {
          "internalType": "address",
          "name": "",
          "type": "address"
        }
      ],
      "stateMutability": "view",
      "type": "function"
    },
    {
      "inputs": [
        {
          "internalType": "string",
          "name": "",
          "type": "string"
        }
      ],
      "name": "isRegistered",
      "outputs": [
        {
          "internalType": "bool",
          "name": "",
          "type": "bool"
        }
      ],
      "stateMutability": "view",
      "type": "function"
    },
    {
      "inputs": [
        {
          "internalType": "string",
          "name": "_pHash",
          "type": "string"
        }
      ],
      "name": "registerImage",
      "outputs": [],
      "stateMutability": "nonpayable",
      "type": "function"
    }
  ],
  "bytecode": "0x608060405234801561001057600080fd5b5061082b806100206000396000f3fe608060405234801561001057600080fd5b506004361061004c5760003560e01c80634aaf4a12146100515780637218a7ac14610081578063c53f29d8146100b1578063c822d7f0146100cd575b600080fd5b61006b600480360381019061006691906104db565b6100fd565b6040516100789190610565565b60405180910390f35b61009b600480360381019061009691906104db565b6101b0565b6040516100a89190610565565b60405180910390f35b6100cb60048036038101906100c691906104db565b6101f9565b005b6100e760048036038101906100e291906104db565b61034b565b6040516100f4919061059b565b60405180910390f35b600060018260405161010f9190610627565b908152602001604051809103902060009054906101000a900460ff1661016a576040517f08c379a0000000000000000000000000000000000000000000000000000000008152600401610161906106c1565b60405180910390fd5b60008260405161017a9190610627565b908152602001604051809103902060009054906101000a900473ffffffffffffffffffffffffffffffffffffffff169050919050565b6000818051602081018201805184825260208301602085012081835280955050505050506000915054906101000a900473ffffffffffffffffffffffffffffffffffffffff1681565b6001816040516102099190610627565b908152602001604051809103902060009054906101000a900460ff1615610265576040517f08c379a000000000000000000000000000000000000000000000000000000000815260040161025c90610753565b60405180910390fd5b336000826040516102769190610627565b908152602001604051809103902060006101000a81548173ffffffffffffffffffffffffffffffffffffffff021916908373ffffffffffffffffffffffffffffffffffffffff160217905550600180826040516102d39190610627565b908152602001604051809103902060006101000a81548160ff0219169083151502179055503373ffffffffffffffffffffffffffffffffffffffff167fa840a41b4b6f23fec289d5e36940c06ad83c24fd1b2afa1a4c787078cb3f42f882426040516103409291906107c5565b60405180910390a250565b6001818051602081018201805184825260208301602085012081835280955050505050506000915054906101000a900460ff1681565b6000604051905090565b600080fd5b600080fd5b600080fd5b600080fd5b6000601f19601f8301169050919050565b7f4e487b7100000000000000000000000000000000000000000000000000000000600052604160045260246000fd5b6103e88261039f565b810181811067ffffffffffffffff82111715610407576104066103b0565b5b80604052505050565b600061041a610381565b905061042682826103df565b919050565b600067ffffffffffffffff821115610446576104456103b0565b5b61044f8261039f565b9050602081019050919050565b82818337600083830152505050565b600061047e6104798461042b565b610410565b90508281526020810184848401111561049a5761049961039a565b5b6104a584828561045c565b509392505050565b600082601f8301126104c2576104c1610395565b5b81356104d284826020860161046b565b91505092915050565b6000602082840312156104f1576104f061038b565b5b600082013567ffffffffffffffff81111561050f5761050e610390565b5b61051b848285016104ad565b91505092915050565b600073ffffffffffffffffffffffffffffffffffffffff82169050919050565b600061054f82610524565b9050919050565b61055f81610544565b82525050565b600060208201905061057a6000830184610556565b92915050565b60008115159050919050565b61059581610580565b82525050565b60006020820190506105b0600083018461058c565b92915050565b600081519050919050565b600081905092915050565b60005b838110156105ea5780820151818401526020810190506105cf565b60008484015250505050565b6000610601826105b6565b61060b81856105c1565b935061061b8185602086016105cc565b80840191505092915050565b600061063382846105f6565b915081905092915050565b600082825260208201905092915050565b7f5468697320696d616765206973206e6f7420726567697374657265642079657460008201527f2e00000000000000000000000000000000000000000000000000000000000000602082015250565b60006106ab60218361063e565b91506106b68261064f565b604082019050919050565b600060208201905081810360008301526106da8161069e565b9050919050565b7f5468697320696d616765202870486173682920697320616c726561647920726560008201527f6769737465726564210000000000000000000000000000000000000000000000602082015250565b600061073d60298361063e565b9150610748826106e1565b604082019050919050565b6000602082019050818103600083015261076c81610730565b9050919050565b600061077e826105b6565b610788818561063e565b93506107988185602086016105cc565b6107a18161039f565b840191505092915050565b6000819050919050565b6107bf816107ac565b82525050565b600060408201905081810360008301526107df8185610773565b90506107ee60208301846107b6565b939250505056fea2646970667358221220124ebb4d9c79d8d6e6dacec4704d284ed931a51d99391fc63d4a6d7e9310718d64736f6c63430008180033",
  "linkReferences": {},
  "deployedLinkReferences": {}
}